:020000040800F2
:100000002811002045010008352F0008252B000885
:10001000312E0008310F0008C975000800000000EB
:10002000000000000000000000000000F543000890
:1000300045180008000000005135000873560008FC
:10004000297600085F0100085F010008653B000891
:100050005F0100085F0100085F0100085F01000800
:100060005F0100085F0100085F0100085F010008F0
:100070005F0100085F0100085F0100085F010008E0
:100080005F0100085F0100085F0100085F010008D0
:100090005F0100085F0100085F0100085F010008C0
:1000A0005F0100085F0100085F0100085F010008B0
:1000B0005F010008AD5700085F0100085F010008FC
:1000C0005F0100085F0100085F0100085F01000890
:1000D0005F01000875680008096A0008596B00088C
:1000E0005F0100085F0100085F0100085F01000870
:1000F0005F0100085F0100085F0100085F01000860
:100100005F0100085F0100085F0100085F0100084F
:10011000796600085F0100085F0100085F010008C0
:100120005F0100085F0100085F0100085F0100082F
:10013000DFF80CD000F0DEFC0048004729860008FC
:10014000281100200648804706480047FEE7FEE7E2
:10015000FEE7FEE7FEE7FEE7FEE7FEE7FEE7FEE777
:10016000F9560008310100080649074A086850435B
:1001700043F23902104408604008704701490860A2
:1001800070470000900000206D4EC64140EA010318
:100190009B0703D009E008C9121F08C0042AFAD23D
:1001A00003E011F8013B00F8013B521EF9D2704701
:1001B000D2B201E000F8012B491EFBD270470022A9
:1001C000F6E710B513460A4604461946FFF7F0FF56
:1001D000204610BD421C10F8011B0029FBD1801ADB
:1001E0007047F0B480EA0102D40F4200B2EB410F35
:1001F00002D20246084611464A0042D0C30DDDB283
:10020000C1F3C752AD1A202D35DAC1F3160141F4FE
:10021000000204B15242C5F1200602FA06F12A4159
:100220001044B3EBD05F23D0C4B1012DA0EBC35079
:1002300009DCF0BC4FF0004202EAC35200F50000B6
:10024000DBB200F09CBB400000F1807000EBC350BB
:10025000A0F1807040EAD170490009E0490841EA04
:10026000C071A0EBC35000F50000400800EBC35084
:10027000F0BC00F07BBB6142012202EB4101001B9C
:10028000F6E7F0BC704781F00041AAE780F000403B
:10029000A7E780EA010210B502F00043400026D033
:1002A0004A0023D04FEA106101EB1261C0F35600FF
:1002B000C2F3560240F4000042F40002A0FB022008
:1002C000A1F17F014FEA0040140401D000F10100C8
:1002D00050EA124001D44000491EC2B20C0604EBA1
:1002E000D010401C4008802A02D003E0002010BD3E
:1002F00020F00100002900DA0020184310BD30B4BE
:1003000080EA010202F0004530F0004221F0004096
:1003100015D0A0B1C0F3C753C2F3C754C2F316013E
:10032000C0F31600E41A41F4000140F400027D34E9
:10033000914201D3641C00E04900002C02DA30BC79
:10034000002070474FF400000023914201D3891A26
:10035000034340084FEA4101F7D151B1914202D124
:100360004FF0004105E002D24FF0010101E06FF0D3
:10037000010103EBC450284430BC00F0F7BA2DE96A
:10038000FE4F804681EA0300C00F0C46009021F02A
:10039000004123F00045B8EB0200A94105D24046D8
:1003A000214690461C460B46024623F0004010436F
:1003B00004D14046214603B0BDE8F08F270DC7F3B6
:1003C0000A00C3F30A510290401A0190402866DAED
:1003D000C3F3130040F4801B0098924620B1002321
:1003E000D2EB030A63EB0B0B01985946C0F14002B4
:1003F000504600F08AFA06460D4650465946019A84
:1004000000F0A2FA10EB08006141002487EA1152C3
:1004100084EAE7731A433BD0009A3AB3019A012A5F
:100420004FEA075210DC001B61EB02014FF0004263
:1004300002EA0752CDE90042001C41F58011324624
:100440002B4600F0D6FAB6E7001B61EB0201001C58
:1004500041F5801300185B412018A2F5001747EB07
:10046000030140EAD570B6196D4111E06D084FEAFD
:10047000360645EAC0754FEA0752001B61EB0201E0
:10048000001C41F5801149084FEA30000019514124
:1004900032462B4603B0BDE8F04F00F09DBA0098FD
:1004A000012240000023D0EB020263EBE0730098CE
:1004B00021464FEAE074B8EB000061EB0401E9E784
:1004C00083F000435BE781F0004158E72DE9FE4FE0
:1004D00081EA030404F0004421F0004100944FF04D
:1004E000000B23F0004350EA010402D052EA030457
:1004F00004D10020014603B0BDE8F08FC3F30A54D5
:10050000C1F30A552C44A4F2F3340194A0FB025425
:10051000C1F3130141F48011C3F3130343F48013B7
:1005200001FB024400FB034E840A970A44EA81540B
:1005300047EA8357A4FB076802958D0A05FB0785E8
:100540004FEA932C04FB0C542705029D4FEA0658F2
:1005500047EA1637B5EB08056EEB070C870E920ECF
:1005600047EA811742EA8312A7FB0201B6EB0B01AF
:1005700064EB00042B0D43EA0C335E1844EB1C5073
:10058000DA465146E7FB0201C5F313044FEA0B3389
:1005900043EA14534FEA0432019C43EA0603A4F1F0
:1005A0000C040294009CCDE900B400F022FAA2E70A
:1005B0002DE9F04D81EA030404F0004B21F00045E1
:1005C00014464FF0000A23F0004150EA050220D003
:1005D00054EA01021DD0C5F30A570246C5F31303BE
:1005E000C1F31300C1F30A5640F4801543F480139D
:1005F000A7EB0608101BD64608F2FD3873EB050082
:1006000002D308F1010801E092185B41B8F1000F34
:1006100003DA00200146BDE8F08D00204FF4801180
:10062000064684460EE0171B73EB050705D3121B25
:1006300063EB050306434CEA010C49084FEA30001E
:1006400092185B4150EA0107EDD152EA030012D043
:1006500082EA040083EA0501084303D100224FF037
:10066000004308E0101BAB4102D20122002302E04C
:100670006FF0010253101AEB06004CEB085110EB1F
:100680000A0041EB0B01BDE8F04D00F0A5B9C10F28
:1006900080EAE0700844CA079623002100F06FB991
:1006A0000EB5C10F80EAE0700844CA07002140F28D
:1006B00033438DE80E000A460B4600F09AF903B06A
:1006C00000BD0EB540F2334102910021CDE9001189
:1006D0000A460B4600F08DF903B000BD00F0004261
:1006E00020F00040C10DC0F3160040F400007F2947
:1006F00001DA00207047962903DCC1F19601C84059
:1007000001E096398840002AF4D04042704720F03A
:100710000040C10DC0F3160040F400007F2901DA4B
:1007200000207047962903DCC1F19601C84070474C
:1007300096398840704770B5C1F30A5201F0004500
:100740000024C1F3130140F2FF3341F480119A42B7
:1007500001DA002070BD40F233439A42A2F23342E4
:1007600003DC524200F0E0F800E090402C43F1D06E
:10077000404270BDC1F30A5210B5C1F3130140F2FB
:10078000FF3341F480119A4201DA002010BD40F29B
:1007900033439A42A2F2334203DC524200F0C4F8DF
:1007A00010BD904010BD00F0004230F000400AD073
:1007B000C10D01F56071C0F3160042EA0151C20893
:1007C00040071143704700200146704730B50029AB
:1007D00004DB4FF00044404264EB0101002B04DBDA
:1007E0004FF00044524264EB03038B4208BF824245
:1007F00030BD000030B5002904DB4FF0004440421A
:1008000064EB0101002B04DB4FF00044524264EB27
:100810000303994208BF904230BD000001F000433D
:1008200030B421F0004150EA010206D00A0DA2F5D1
:100830006072C1F31301002A02DC30BC0020704753
:10084000440F44EAC104C100E01830BC00EBC250C0
:1008500000F08CB8002801DBC0F10040002901DB6A
:10086000C1F1004181427047002801DBC0F1004026
:10087000002901DBC1F100418842704730B50B46C9
:10088000014600202022012409E021FA02F59D42C0
:1008900005D303FA02F5491B04FA02F52844151E94
:1008A000A2F10102F1DC30BD2DE9F05F0546002028
:1008B00092469B4688460646814640241BE02846D1
:1008C00041464746224600F02FF853465A46C01A82
:1008D000914110D311461846224600F016F82D1A01
:1008E00067EB01084F4622460120002100F00DF879
:1008F00017EB00094E41201EA4F10104DFDC48463D
:1009000031462A464346BDE8F09F202A04DB203AC0
:1009100000FA02F1002070479140C2F1200320FA52
:1009200003F3194390407047202A04DB203A21FA50
:1009300002F00021704721FA02F3D040C2F12002F8
:100940009140084319467047202A06DBCB17203A0E
:1009500041FA02F043EAE07306E041FA02F3D040C4
:10096000C2F1200291400843194670470029A8BFF0
:100970007047401C490008BF20F00100704710B4C8
:10098000B0FA80FC00FA0CF050EA010404BF10BC7D
:10099000704749B1CCF1200421FA04F411FA0CF1AA
:1009A00018BF012121430843A3EB0C01CB1D010615
:1009B000000A002BBEBF002010BC704700EBC350E4
:1009C00010440029A4BF10BC7047401C490008BF58
:1009D00020F0010010BC704710B5002B08DA401C55
:1009E00041F1000192185B411A4301D120F001004E
:1009F00010BD2DE9F04D92469B4611B1B1FA81F23E
:100A000002E0B0FA80F220329046FFF77EFF044603
:100A10000F4640EA0A0041EA0B0153465A46084392
:100A200003D120463946BDE8F08D114653EA010056
:100A300015D0C8F140025046FFF776FF05460E4636
:100A4000504659464246FFF760FF084301D0012057
:100A500000E00020054346EAE0762C4337430A983D
:100A60004FEA4453A0EB08004FEAD4240A304FF079
:100A7000000244EA47544FEAD72502D50020014638
:100A8000D1E7010510196941DDE9084500196941FF
:100A9000BDE8F04DA0E770B521F0004303430CD052
:100AA000C1F30A550024D5EB040564EB0403D61703
:100AB000AD1AB34102DB0020014670BD201841EBA6
:100AC000025170BDC1F30A52C1F3130140F2FF336A
:100AD00041F480119A4202DA00200146704740F248
:100AE00033439A42A2F2334202DC5242FFF71CBF68
:100AF000FFF70BBF064C074D06E0E06840F001032E
:100B000094E8070098471034AC42F6D3FFF714FB83
:100B1000A8960008C89600082DE9F04D00231A4653
:100B20001B1A8A4103DB00200146BDE8F08DC1F3AA
:100B30000A52C1F3130141F480154FF0000BD107A5
:100B400002D100186D41521E0027044640F2FF11E9
:100B5000384601EB620A3E468046024600204FF4CA
:100B60008011FFF7E1FEC2197141BB1846EB01008D
:100B7000B4EB030C75EB000C04D3E41A65EB000531
:100B800017460E46241908F101006D4180463428AD
:100B9000E3DDF91946EB0600091BA84103D24FF02B
:100BA000FF32134601E0002213461BEB070046EB21
:100BB0000A51BDE8F04DFFF70FBF00002DE9F041ED
:100BC00004460D461646FF2C03D90CA006F08EFEF7
:100BD000FF240F2D03D90EA006F088FE0F250F2E3F
:100BE00003D910A006F082FE0F26200400EB05308A
:100BF00000EB06273846BDE8F0810000626C6F63A9
:100C00006B206D6178203A323536212100000000DA
:100C1000736563746F72206D6178203A31362121DB
:100C20000000000070616765206D6178203A313600
:100C3000212100002DE9F04F8DB081460D46302175
:100C400001A8FFF7BCFA4FF0000AD346002000903D
:100C50000024002600BF06E059F8240001A941F84D
:100C60002400601CC4B2AC42F6DB681EC4B221E0B2
:100C7000681EC6B219E0721E01AB53F8221001AA19
:100C800052F82600FFF7E6FD0DD2701E01A951F8BB
:100C900020A001A850F82610701E01AA42F82010CA
:100CA00001A840F826A0701EC6B2281BB042E2DDA3
:100CB000601EC4B2012CDBDA00240CE001A951F85B
:100CC0002400FFF770FD07463A460B462AA006F0BF
:100CD0000DFE601CC4B2AC42F0DB4FF0000A6A1E8D
:100CE00001AB53F822000199FFF7CDFA009000986C
:100CF000FFF759FD0746224A224BFFF767FD20D236
:100D0000022408E001A850F824105046FFF769FAC1
:100D10008246601CC4B2A81EA042F3DC281FFFF765
:100D2000B6FC074639465046FFF7E9FA8346009875
:100D3000FFF739FD07463A460B4613A006F0D6FDED
:100D400016E0032408E001A850F824105046FFF7ED
:100D500048FA8246601CC4B2E81EA042F3DCA81F19
:100D6000FFF795FC074639465046FFF7C8FA834619
:100D700058460DB0BDE8F08F2323256623230000DD
:100D80009A9999999999993F0D0A2A2A25662A2AAA
:100D90000D0A23230000000010B5012002F0C8FC5A
:100DA000002002F0C5FC10BD08B5014600200090EF
:100DB000034800900098084400900098008808BDFF
:100DC000006C0040014908607047000000860D4239
:100DD00008B500220092044A0092009A0244009250
:100DE000009A116008BD0000006C00402DE9F04F32
:100DF00093B006464FF0000A0025AB46B1461F24CB
:100E000006E009F001000AA908554FEA5909641ED5
:100E1000002CF6DA012429E0C4F10800FFF740FCB9
:100E200002460B46CDE9000100204FF0804107F05B
:100E300079FD074688460AA9085DFFF742FC3A4655
:100E40004346CDE90201FFF741FBCDE90601284603
:100E5000FFF726FCCDE90401DDE90623FFF78FFA51
:100E6000CDE90801FFF767FC0546641C082CD3DDBB
:100E70007F2D01DB7F3D02E0C5F17F004542092463
:100E800028E0C4F10800FFF70BFC02460B46CDE951
:100E9000000100204FF0804107F044FDCDE9020140
:100EA0000AA9085DFFF70DFC0746DDE90223FFF7FD
:100EB0000DFBCDE906015846FFF775FCCDE90401AD
:100EC000DDE90623FFF75BFACDE90801FFF7A6FC91
:100ED0008346641C1F2CD4DD4FF07E515846FFF72B
:100EE00080F983462846FFF7DBFB02460B46CDE937
:100EF000040100204FF0804107F014FDCDE9080106
:100F00005846FFF750FCCDE90601DDE90823FFF75D
:100F1000DDFA0746FFF782FC82469DF8280001288B
:100F200001D18AF0004A504613B0BDE8F08F0000AE
:100F300010B503E003A006F0D9FC00E0FAE700BF1B
:100F400010BD00000D0A5761726E6E696E67212137
:100F5000204275734661756C74204F6363757265CA
:100F6000640D0A00F0B505460E464FF6FF7418E012
:100F7000287802F0CDFF84EA002400270EE014F464
:100F8000004F05D048F2050080EA440084B203E037
:100F90004FF6FF7000EA4404781CC7B2082FEEDB5E
:100FA0006D1C3000A6F101018EB2E1D1204602F0A5
:100FB000BFFFF0BD2DE9F84304460025A84669A00F
:100FC00006F094FC0020FFF7FDFE02206D4B00228E
:100FD00001460090104600F053FB6A480838017A39
:100FE000407A01EB002085B2002D04DDB5F5B46F29
:100FF00001DC258002E04FF4B46020800220614BC8
:101000009B1C002203210090104600F039FB5D4834
:101010000838817AC07A01EB002085B2002D03DD0B
:10102000052D01DC658001E0012060800220554B28
:101030001B1D002204210090104600F021FB5148A6
:101040000838017B407B01EB002085B2002D04DDD8
:10105000B5F5B46F01DCA58002E04FF4B460A08068
:101060000420484B1B1F002205210090104600F071
:1010700007FB44480838D0F804804046FFF793FB4C
:1010800006460022404BFFF7B5FB07D23F494046DA
:10109000FFF7E0FB02D8C4F8128002E00020C4F899
:1010A00012000120374B9B1D0022062100901046A4
:1010B00000F0E6FA33480838857B002D03DD0A2D61
:1010C00001DCA57101E00320A07104202D4B083B39
:1010D000002207210090104600F0D2FA2948083873
:1010E000D0F800804046FFF75EFB0646284A294BB1
:1010F000FFF780FB02D2C4F80E8002E00020C4F8A3
:101100000E00254840882449098848432249898897
:10111000884211DD204880881F490988884203DA07
:101120001D4800881C4988801B4880881A49098806
:1011300090FBF1F01849488017484088052802DDE7
:10114000052015494880002020726072A07201209D
:10115000E07203202073102060736420E071BDE80A
:10116000F88300000D0A436F6E666967446174611D
:101170005F496E69742073746172742E2E2E0D0A8D
:1011800000000000BA0000200000E03F0000204105
:101190007B14AE47E17A843F9C00002021B10268B5
:1011A00042F00102026004E002684FF6FE731A404A
:1011B000026070470146486880B2704710B500224F
:1011C000026847F6F0739A430C6A8B6823430C69F4
:1011D00023434C6923438C692343CC6923434C6AE2
:1011E00023438C6A23431A430260CB6843600B6835
:1011F00083604B68C36010BD70B5002400250026D5
:101200004FF496713848FEF7DAFF3848806837495E
:1012100008603748FFF7CEFFC0F596743348C068C2
:10122000A04204DA31488089201A86B205E02F48AE
:10123000C068C0F59670204486B22C48C46000682F
:101240003044401EB0F5967F06DA284800683044E6
:10125000401E2649486006E0244800683044A0F259
:101260002D102249486021484268016821A006F0FB
:101270003DFB1E484068A0F580712B3903D100204A
:101280001A49886004E019484068401C1749886082
:1012900046B31648056840681449096888420ADD63
:1012A000002405E02048405D0F490855641C6D1C72
:1012B000B442F7DB16E0002412E0B5F5957F05DCBB
:1012C0001948405D084908556D1C08E0A5F5807077
:1012D0002B3804D11448405D034908550025641C8F
:1012E000B442EADB304670BDCC030020BC030020D2
:1012F0006C0002400D0A444D4120554152543220A9
:101300005265636576204461746120537461727420
:10131000204E756D3A25642D2D2D456E64204E7539
:101320006D3A2025640D0A00840200202DE9F04169
:1013300006460F4600240025A0461E4800780128D6
:1013400035D1FFF759FF0446002C17DD21461AA0BE
:1013500006F0CCFA1D491EA006F0C8FA00BF05E051
:101360001A48415D1EA006F0C1FA6D1CA542F7DBCC
:101370003946304602F0C8FC804602E01AA006F06A
:10138000B5FA00211B48FFF709FF4FF496711A4880
:10139000FEF715FF00200749087001211548FFF7E7
:1013A000FDFE012240F22441144805F0A9FC40460C
:1013B000BDE8F081340000200D0A446174614C6581
:1013C0006E6774683A25640D0A000000CC030020A3
:1013D0000D0A55617274333A25730D0A000000003E
:1013E00020252E32782000000D0A4E6F2064617493
:1013F000610D0A006C00024084020020004400409D
:1014000071200149087070478D00002008B5012146
:10141000112002F06DF98020ADF8000004208DF855
:1014200003006946014800F095FB08BD001001402B
:1014300008B50121112002F05BF98020ADF8000011
:1014400010208DF8030003208DF802006946024841
:1014500000F080FB08BD0000001001402DE9F84FAE
:101460000027B846B946002400250026A246454874
:101470000078B8B90120444B002201460090104684
:1014800000F0FEF840480078712805DD71203E49E3
:1014900008703EA006F02AFA3B48017840A006F00A
:1014A00025FA0AE00120384B002201460090104640
:1014B00000F056F900203349087007F00DF887B2A4
:1014C00006F0C4FF1FFA80F806F056FF1FFA80F9F5
:1014D000C8F30E05294636A006F008FA2A48057812
:1014E00006F08CFF84B2214639A006F0FFF98CB9D2
:1014F0004FF47A7007F062FF3D4800F0C1F92248CE
:10150000007838B120480078401E1F49087006F066
:1015100075FF84B24FF47A7094FBF0F01A490978A1
:1015200000EB010B5846FFF7B2F8824631495046AE
:10153000FEF7AFFE30490090FEF7E1FE8346FFF76D
:10154000E6F8C6B239462DA006F0D0F9494633A0D8
:1015500006F0CCF9214639A006F0C8F931463FA083
:1015600006F0C4F908480078854207D00120064BF0
:10157000002201460090104600F0F2F83046BDE827
:10158000F88F00002A0000208D0000200A0D205254
:1015900065674220204552524F5221210D0A00001A
:1015A0000A0D20526567423A2564200D0A000000AA
:1015B0000A0D20B5E7B3D8B5E7C1F7637572726558
:1015C0006E743A256420286D41290D0A0000000040
:1015D0000A0D20424154542043617061636974795B
:1015E000206C6566743A2564206D41680D0A000020
:1015F00040420F000000C8420000E4420A0D20B53E
:10160000E7B3D8B5E7D1B9766F6C746167653A25F1
:101610006420286D56290D0A000000000A0D20B52F
:10162000E7C1BFC0DBBCC6616363756D756C617477
:10163000653A2564206D41680D0A00000A0D20CA34
:10164000A3D3E0BEF8B6D4B5E7C1BF524141433A97
:101650002564206D41680D0A000000000A0D20CAB3
:10166000A3D3E0CFE0B6D4B5E7C1BF46554C4C5F3D
:101670007374617475733A256425250D0A000000A2
:101680002DE9F04705460E4617461C46DDF820803A
:101690003A4631462846FFF791FA814602F022FD8C
:1016A00002F0B4FD124908604FF4FA7000F0E8F857
:1016B00002F0CCFD0F4908600D4802680846016839
:1016C0000DA006F013F90B4800681949884207D1AC
:1016D00018A006F00BF942464946204602F046FCA7
:1016E00002F04AFE642000F0CBF8BDE8F08700006D
:1016F00084000020880000200D0A20466C61736879
:10170000494420697320307825782C20204D616E63
:101710007566616374757265722044657669636588
:1017200020494420697320307825780D0A00000094
:101730001840EF000D0A53504920466C6173682031
:101740005732355131323842562069732072656103
:10175000647920746F2072656164210D0A000000B5
:101760002DE9F04705460E4617461C46DDF8208059
:101770003A4631462846FFF721FA814602F0B2FC8C
:1017800002F044FD134908604FF4487000F078F807
:1017900002F05CFD104908600E48026808460168C6
:1017A0000EA006F0A3F80C4800681A4988420DD133
:1017B00019A006F09BF8484602F072FD42464946E1
:1017C000204602F0FDFBC82000F05AF802F0D4FDDC
:1017D000BDE8F08784000020880000200D0A204624
:1017E0006C617368494420697320307825782C2017
:1017F000204D616E75666163747572657220446513
:101800007669636520494420697320307825780D16
:101810000A0000001840EF000D0A53504920466CA2
:10182000617368205732355131323842562069731E
:1018300020726561647920746F2077726974652104
:101840000D0A000010B502A006F050F810BD00000F
:101850000D0A5761726E6E696E67212120446562C0
:101860007567204D6F6E69746F722065786365705F
:1018700074696F6E204F6363757265640D0A0000B2
:1018800001B50C49009808604FF0E020006940F075
:1018900001004FF0E021086100BF06480068002801
:1018A000FBD14FF0E020006920F001004FF0E02173
:1018B000086108BD380000202DE9F04F85B00646CC
:1018C00088469146734804904FF0000A0020039028
:1018D000834600240025012002900027102001905B
:1018E0000C200090DDF810A040F20B315046FEF7BE
:1018F00066FCA320674908702020487000BF06E0FE
:1019000018F804106348001D0155601CC4B2062C71
:10191000F6DB01205F498872484606F0FCFF5D490E
:10192000A1F80B0040F68700A1F80D00B1F80D00FA
:1019300006F0F1FF5749A1F80D000120C873564881
:1019400006F0DCFF5349086101215248818281750C
:101950000120504981F80A030846808A12304880E5
:10196000488806F0D8FF4B4948804FF6FF70A1F831
:101970000803102251463046FEF708FC00241025CB
:1019800034E004EB440000EB04114248103000EB5B
:10199000410A04EB440000EB04113E48103000EB18
:1019A00041000079801DC7B2E819B0F5947F00DDD1
:1019B00021E004EB440101EB04123649103101EB44
:1019C0004201888806F0A7FF04EB440101EB0412F2
:1019D0003049103101EB4201888070193A46514676
:1019E000FEF7D4FBE819C5B2601CC4B2294890F8D0
:1019F0000A03A042C5DC00BF264890F80823284609
:101A0000691CCDB232542348B0F8080302122846AC
:101A1000691CCDB2325429463046FFF7A3FA8346FB
:101A20001C48A0F808B3A81E06F800B04FEA2B2106
:101A3000681E315419488079002803DD17488079E1
:101A4000029001E00120029000240EE04B46424645
:101A50002946304602F0EEFE03900398A0F510618F
:101A6000873900D104E0601CC4B202988442EDDBE7
:101A700000BF29460AA005F039FF002405E0315DCA
:101A80000DA005F033FF601CC4B2AC42F7DB05B01B
:101A9000BDE8F08FC0050020000100609C00002020
:101AA0000D0A2D2D2D2D4C656E6774683A25642D19
:101AB0002D2D2D0D0A0000002D25782D0000000091
:101AC0002DE9F04306460F463546BC46002100246A
:101AD0008846002A01DB002B02DA0020BDE8F083F3
:101AE0009A4201DA0020F9E79A4212D112B90BB9F1
:101AF0000020F3E7002108E0685C1CF801904845ED
:101B000001D00020EAE7481C01B29142F4DB2846EC
:101B1000E4E70BB90020E1E7D01A401C0FFA80F887
:101B2000002113E0002408E00819285C1CF8049048
:101B3000484500D003E0601C04B29C42F4DB00BFC7
:101B40009C4201D16818C9E7481C01B24145E9DB54
:101B50000020C3E72DE9F0410246002500260020C1
:101B600000230024002791F803C00CF00F0591F822
:101B700003C01CF0100F03D091F802C04CEA050519
:101B800091F800C0BCF1000F31D0146800202BE0A8
:101B90004FF0010C0CFA00F3B1F800C00CEA030698
:101BA0009E4220D183004FF00F0C0CFA03F7BC4388
:101BB00005FA03FC4CEA040491F803C0BCF1280FB9
:101BC00006D14FF0010C0CFA00FCC2F814C00AE078
:101BD00091F803C0BCF1480F05D14FF0010C0CFA8D
:101BE00000FCC2F810C0401C0828D1D31460B1F822
:101BF00000C0BCF1FF0F34DD546800202EE000F17E
:101C0000080C4FF0010808FA0CF3B1F800C00CEA18
:101C100003069E4221D183004FF00F0C0CFA03F70C
:101C2000BC4305FA03FC4CEA040491F803C0BCF180
:101C3000280F05D100F1080C08FA0CF8C2F814803E
:101C400091F803C0BCF1480F07D100F1080C4FF028
:101C5000010808FA0CF8C2F81080401C0828CED3FE
:101C60005460BDE8F0810246002093680B4201D029
:101C7000012000E00020704741617047016170471A
:101C800030B587B01EA30FCB03AC0FC420A103C98E
:101C9000CDE90101002400250D2103A806F0C8FDAF
:101CA0001D48FFF7EDFD1D480078012804D1FFF71E
:101CB000A3FA00201949087008234FF4967201A96D
:101CC0001748FFF7FDFE04467CB1164884420CD24B
:101CD000257A00244FF496711148FEF770FA00201F
:101CE00011490880284607B030BD4FF496710C4862
:101CF000FEF765FA00200C490880FF20F3E700009A
:101D0000AFAF0000AF8016020000A50D0A00000072
:101D1000AFAF0000AF00160280841E003400002028
:101D2000CC030020EC0400203C00002030B587B03C
:101D30001EA30FCB03AC0FC420A103C9CDE9010141
:101D4000002400250D2103A806F072FD1D48FFF7B1
:101D500097FD1D480078012804D1FFF74DFA0020B7
:101D60001949087008234FF4967201A91748FFF724
:101D7000A7FE04467CB1164884420CD2257A002482
:101D80004FF496711148FEF71AFA002011490880A5
:101D9000284607B030BD4FF496710C48FEF70FFA95
:101DA00000200C490880FF20F3E70000AFAF0000DF
:101DB000AF801A020000A90D0A000000AFAF0000BA
:101DC000AF001A0280841E0034000020CC030020E3
:101DD000EC0400203C00002030B587B01EA30FCBE0
:101DE00003AC0FC420A103C9CDE9010100240025E3
:101DF0000D2103A806F01CFD1D48FFF741FD1D48FD
:101E00000078012804D1FFF7F7F90020194908707C
:101E100008234FF4967201A91748FFF751FE0446B4
:101E20007CB1164884420CD2257A00244FF4967176
:101E30001148FEF7C4F9002011490880284607B070
:101E400030BD4FF496710C48FEF7B9F900200C49EB
:101E50000880FF20F3E70000AFAF0000AF801C0256
:101E60000000AB0D0A000000AFAF0000AF001C0285
:101E700080841E0034000020CC030020EC040020ED
:101E80003C0000202DE9F04F87B030A30FCB03AC0E
:101E90000FC432A003C8CDE901014FF0000AD346B8
:101EA000002000900E2103A806F0C2FC2D48FFF789
:101EB000E7FC2D480078012804D1FFF79DF90020A8
:101EC0002949087008234FF4967201A92748FFF7A3
:101ED000F7FD8246BAF1000F2DD0254882452AD25F
:101EE0009AF8080000049AF8091000EB01209AF80B
:101EF0000A10084400900098FEF7E3FB80461D4A54
:101F00001D4BFEF7E3FA064600221C4BFEF750FB82
:101F10000446FEF72FFC1FFA80FB4FF0000A4FF437
:101F200096711248FEF74BF9002015490880584673
:101F300007B0BDE8F08F4FF496710C48FEF73FF9FB
:101F400000200F4908804FF6FF70F1E7AFAF0000A7
:101F5000AF800C030000009C0D0A0000AFAF000032
:101F6000AF000C0380841E0034000020CC0300204E
:101F7000E904002014AE47E17A844E4080842E416B
:101F80003C00002030B587B01EA30FCB03AC0FC4BC
:101F900020A103C9CDE90101002400250D2103A8DA
:101FA00006F046FC1D48FFF76BFC1D480078012831
:101FB00004D1FFF721F900201949087008234FF4D4
:101FC000967201A91748FFF77BFD04467CB11648BD
:101FD00084420CD2257A00244FF496711148FEF702
:101FE000EEF8002011490880284607B030BD4FF4B4
:101FF00096710C48FEF7E3F800200C490880FF209A
:10200000F3E70000AFAF0000AF80100200009F0DAB
:102010000A000000AFAF0000AF00100280841E0075
:1020200034000020CC030020EA0400203C00002003
:1020300030B587B01EA30FCB03AC0FC420A103C9DA
:10204000CDE90101002400250D2103A806F0F0FBD5
:102050001D48FFF715FC1D480078012804D1FFF743
:10206000CBF800201949087008234FF4967201A993
:102070001748FFF725FD04467CB1164884420CD270
:10208000257A00244FF496711148FEF798F8002045
:1020900011490880284607B030BD4FF496710C48AE
:1020A000FEF78DF800200C490880FF20F3E70000C0
:1020B000AFAF0000AF800E0200009D0D0A000000CF
:1020C000AFAF0000AF000E0280841E00340000207D
:1020D000CC030020EA0400203C00002030B587B08B
:1020E00020A30FCB03AC0FC422A103C9CDE901018A
:1020F000002400250D2103A806F09AFB1F48FFF7D6
:10210000BFFB1F480078012804D1FFF775F80020B5
:102110001B49087008234FF4967201A91948FFF76C
:10212000CFFC04469CB11848844210D2617A207AD0
:1021300001EB002085B200244FF496711148FEF7A0
:102140003EF8002011490880284607B030BD4FF402
:1021500096710C48FEF733F800200C4908804FF6C2
:10216000FF70F2E7AFAF0000AF8014020000A30DD4
:102170000A000000AFAF0000AF00140280841E0010
:1021800034000020CC030020EC0400203C000020A0
:1021900030B587B01EA30FCB03AC0FC420A103C979
:1021A000CDE90101002400250D2103A806F040FB24
:1021B0001D48FFF765FB1D480078012804D1FFF793
:1021C0001BF800201949087008234FF4967201A9E2
:1021D0001748FFF775FC04467CB1164884420CD2C0
:1021E000257A00244FF496711148FDF7E8FF00208E
:1021F00011490880284607B030BD4FF496710C484D
:10220000FDF7DDFF00200C490880FF20F3E7000008
:10221000AFAF0000AF8018020000A70D0A00000059
:10222000AFAF0000AF00180280841E003400002011
:10223000CC030020EC0400203C000020F0B587B067
:1022400021A30FCB03AC0FC423A103C9CDE9010126
:1022500000240025002600270D2103A806F0E8FA37
:102260001F48FFF70DFB1F480078012804D1FEF737
:10227000C3FF00201B49087008234FF4967201A980
:102280001948FFF71DFC04469CB11848844210D23F
:10229000257A667A06EB052087B200244FF4967102
:1022A0001148FDF78CFF002011490880384607B01F
:1022B000F0BD4FF496710C48FDF781FF00200C49EA
:1022C00008804FF6FF70F2E7AFAF0000AF800A0260
:1022D0000000990D0A000000AFAF0000AF000A0235
:1022E00080841E0034000020CC030020EA0400207B
:1022F0003C00002030B587B01EA30FCB03AC0FC449
:1023000020A103C9CDE90101002400250D2103A866
:1023100006F08EFA1D48FFF7B3FA1D480078012831
:1023200004D1FEF769FF00201949087008234FF413
:10233000967201A91748FFF7C3FB04467CB1164803
:1023400084420CD2257A00244FF496711148FDF78F
:1023500036FF002011490880284607B030BD4FF4F1
:1023600096710C48FDF72BFF00200C490880FF20D8
:10237000F3E70000AFAF0000AF8012020000A10D34
:102380000A000000AFAF0000AF00120280841E0000
:1023900034000020CC030020EA0400203C00002090
:1023A0000FB42DE9F04F89B0DDE92B6BFE480590A5
:1023B0000027B946012003904FF0000A00240025B1
:1023C0004FF00008102002900C200190DDF81490CE
:1023D00040F20B314846FDF7F2FEA320F2490870A7
:1023E0002020487000BF06E01BF80410EE48001DD6
:1023F0000155601CC4B2062CF6DB0120EA49887244
:102400002D9806F088FAE849A1F80B0040F28720E1
:10241000A1F80D00B1F80D0006F07DFAE249A1F82F
:102420000D000120C8730C2048800024002081F892
:102430000A0341E216A850F82400DC4A811A9042AF
:102440007ED008DCA0F180500A380BD0472840D05D
:10245000562876D151E1012974D0A42973D0A52939
:10246000F7D107E1D149573904EB440000EB0412DE
:10247000CD48103000EB42000160012104EB440024
:1024800000EB0412C848103000EB42008180C848BD
:10249000817904EB440000EB0412C348103000EBD8
:1024A00042008171C04890F80A03401CBE4981F87F
:1024B0000A030846418804EB440000EB0412BA48C2
:1024C000103000EB420080880844801DB6494880E7
:1024D000EFE101F02BFB06A9009003F06BFB9DF8E8
:1024E0001800B34908729DF8190048729DF81A0047
:1024F00088729DF81B00C8729DF81C000873BDF817
:102500001E00A0F5FA604873A849103904EB440096
:1025100000EB0412A448103000EB420001600621D9
:1025200004EB440000EB04129F48103000EB420023
:1025300081809F48417B04EB440000EB041203E0E0
:102540003EE1B5E171E152E09748103000EB420006
:1025500081719748017B04EB440000EB0412924820
:10256000103000EB4200C1719148C17A04EB440085
:1025700000EB04128C48103000EB420001728C48D2
:10258000817A04EB440000EB04128748103000EB22
:10259000420041728648417A04EB440000EB041289
:1025A0008148103000EB420081728148017A04EBCF
:1025B000440000EB04127C48103000EB4200C17272
:1025C000794890F80A03401C774981F80A030846C5
:1025D000418804EB440000EB04127348103000EB18
:1025E000420080880844801D6F49488061E16F493E
:1025F000A43104EB440000EB04126B48103000EBF4
:1026000042000160022104EB440000EB0412664822
:10261000103000EB4200818065480088011204EB15
:10262000440000EB04126048103000EB420081715E
:102630005F48017804EB440000EB04125A48103064
:1026400000EB4200C171584890F80A03401C5649FB
:1026500081F80A030846418804EB440000EB0412A9
:102660005148103000EB420080880844801D4E49DC
:1026700048801EE14D49A53104EB440000EB0412F3
:102680004948103000EB42000160022104EB440095
:1026900000EB04124448103000EB420081804448B3
:1026A0004088011204EB440000EB04123E48103055
:1026B00000EB420081713E48817804EB440000EB5E
:1026C00004123948103000EB4200C171364890F8CE
:1026D0000A03401C344981F80A030846418804EB88
:1026E000440000EB04123048103000EB42008088B8
:1026F0000844801D2C494880DBE02C49491E04EB2E
:10270000440000EB04122848103000EB4200016046
:10271000042104EB440000EB04122348103000EBCA
:10272000420081802248D0F8120004909DF81010D9
:1027300004EB440000EB04121B48103000EB420095
:1027400081719DF8111004EB440000EB041216484F
:10275000103000EB4200C1719DF8121004EB4400F0
:1027600000EB04121048103000EB420001729DF89B
:10277000131004EB440000EB04120B48103000EB84
:1027800042004172084890F80A03401C064981F84B
:102790000A030846418804EB440000EB0412024897
:1027A000103000EB420005E0CB0800206100001073
:1027B0009C00002080880844801DA049488078E063
:1027C0009F4904EB440000EB04129C48103000EBDE
:1027D00042000160012104EB440000EB0412974821
:1027E000103000EB42008180002104EB440000EB3C
:1027F00004129248103000EB420081718F4890F82B
:102800000A03401C8D4981F80A030846418804EBFD
:10281000440000EB04128948103000EB420080882D
:102820000844801D8549488043E08549491C04EBE4
:10283000440000EB04128148103000EB42000160BC
:10284000022104EB440000EB04127C48103000EB42
:10285000420081807B488088011204EB440000EB39
:1028600004127648103000EB4200817175480179FE
:1028700004EB440000EB04127048103000EB4200FF
:10288000C1716E4890F80A03401C6C4981F80A0334
:102890000846418804EB440000EB041267481030FE
:1028A00000EB420080880844801D6449488000E0B5
:1028B00000BF00BF601CC4B29DF8AA00A0423FF751
:1028C000B9AD5E49488806F026F85C4948804FF665
:1028D000FF70A1F80803102249463046FDF756FC68
:1028E000002410254BE004EB440101EB0412534992
:1028F000103101EB4201086806F000F804EB4401D6
:1029000001EB04124D49103101EB4201086004EB68
:10291000440000EB04114948103000EB410904EB7E
:10292000440000EB04114548103000EB41000079F1
:10293000801D00F0FF0805EB0800B0F5947F00DD76
:1029400022E004EB440101EB04123C49103101EB9D
:102950004201888805F0DFFF04EB440101EB04121B
:102960003649103101EB42018880701942464946D0
:10297000FDF70CFC05EB0800C5B2601CC4B22F4883
:1029800090F80A03A042AEDC00BF2C4890F8082360
:102990002846691CCDB232542848B0F80803021208
:1029A0002846691CCDB2325429463046FEF7DAFA81
:1029B00082462248A0F808A3A81E06F800A04FEA05
:1029C0002A21681E31541F488079002803DD1D48E4
:1029D0008079039001E001200390002416E05A461C
:1029E000294630462D9B01F025FF0746394616A0A3
:1029F00004F07CFFA7F58070873804D0B0F5007034
:102A000001D0872F00D104E0601CC4B20398844237
:102A1000E5DB00BF294616A004F068FF002405E0AE
:102A2000315D19A004F062FF601CC4B2AC42F7DB58
:102A300009B0BDE8F00F5DF814FB0000CB080020E2
:102A4000610000109C0000200D0A526563656976E4
:102A50006520476574526573706F6E73652073757A
:102A600063636573733A253478210D0A0000000012
:102A70000D0A2D2D2D2D4C656E6774683A25642D39
:102A80002D2D2D0D0A0000002C3078257800000037
:102A9000F0B58DB00446342221496846FDF776FB37
:102AA000E088451E642195FBF1F12846EA1705EB05
:102AB0009272C1EBA2014FF4C87295FBF2F28F182B
:102AC000E088C11700EB91718910B0EB810112D140
:102AD000E188642291FBF2F302FB131131B9E18822
:102AE000920091FBF2F302FB131121B92179022923
:102AF00001DD012600E0002640F26D1005FB0071AB
:102B00002079401E5DF820000844E178084406441E
:102B1000072096FBF0F100FB116020720DB0F0BDB4
:102B2000E095000810B503E003A004F0DFFE00E02C
:102B3000FAE700BF10BD00000D0A5761726E6E69A2
:102B40006E6721212048617264204661756C742093
:102B50004F6363757265640D0A000000AA2101705D
:102B6000002141700321017100214171704710B5AE
:102B700004464FF484712046FDF721FB10BD2DE97A
:102B8000F04104462078AA2802D00020BDE8F08158
:102B9000B4F807500020A4F807000927A0790744DB
:102BA00039462046FEF7DEF90646304605F0B3FE0C
:102BB0000646A4F80750B54201D10120E6E70020FF
:102BC000E4E700002DE9F04F87B0044689469246BD
:102BD00000200690002605906FA103C9CDE90301EE
:102BE0000025AB466E4801786EA004F07FFE34E00D
:102BF000724803990160BDF810108180012070496E
:102C0000087006206F49087000F052FE6E48FEF70B
:102C100037FE6E480078012801D100F049FE0BF123
:102C2000010000F0FF0BBBF1190F05DB4FF0000BAB
:102C30006749888805F07CFC00250CE06548FEF7B4
:102C40001FFE65480078012803D151464846FEF72B
:102C50006DFB681CC5B2032DF0DB604800780028CE
:102C6000C6D15B4840884E49097888422ED1002061
:102C7000A4F8780000F05AFF06905949069802F02F
:102C800099FF574800785249087255484078487271
:102C90005348807888725248C078C872504800798A
:102CA00008734F488079A0F5FA6048734C48007863
:102CB0004B4949784A4A9278CDE900210290484828
:102CC000C3780279C18847A004F010FE0C21504857
:102CD000FDF7B0FF06463E49D1F81200FDF763FD4F
:102CE000074600224B4BFDF785FD0DD23849D1F840
:102CF00012003146FDF7B8FD06D23549D1F8120071
:102D00003146FDF7C0FA064643493046FDF7C1FAA1
:102D100005900598FDF7E2FC0746FDF7B8FC059025
:102D20003D490598FDF7EBFA0646394806603046FE
:102D3000FDF739FD07463A460B4638A004F0D6FDAC
:102D400094F8785004F1280000EB850006605DB926
:102D50001F48407A1E49897AC1EB011100EB8100BE
:102D600004EB4501088009E0681E04EB4000008880
:102D700017490988084404EB45010880B4F8780035
:102D8000401CA4F8780006480078401E04490870EA
:102D900007B0BDE8F08F0000010300000002000052
:102DA0002D00002044617461436F6C6C6563744353
:102DB0006F756E743A25640D0A0000005C050020F2
:102DC000440000204500002040420F004300002046
:102DD0009C000020A0860100340000204C00002050
:102DE000B003002054696D653A2025302E34642DDF
:102DF00025302E32642D25302E32642025302E329F
:102E0000643A25302E32643A25302E32640D0A00A1
:102E1000C40000200000E03F00007A440D0A536F18
:102E20006F7468446174613A25660D0A0000000001
:102E300010B503E003A004F059FD00E0FAE700BF7D
:102E400010BD00000D0A5761726E6E696E67212118
:102E5000204D656D4D616E616765204F63637572CE
:102E600065640D0A00000000704700002DE9FF4175
:102E70004FF0000800200090019002900390002580
:102E8000002400BF06E0E01C1A49085C4DF824004D
:102E9000601CC4B2042CF6DB00980006019900EB1C
:102EA0000140029900EB0120039900EB0108404624
:102EB000FDF79CFF05462846FDF775FC06460E4AC1
:102EC0000E4BFDF797FC0AD20D480078401E0D49C5
:102ED00041F820500A480078401E094908702846E9
:102EE000FDF761FC064632460B4607A004F0FEFCE7
:102EF000BDE8FF81F80400207B14AE47E17A843FEF
:102F00004C000020C40000200D0A43757272656EEB
:102F100074204C6576656C20446174612069733A55
:102F20002025302E3366206D65746572732E0D0A70
:102F30000000000010B502A004F0D8FC10BD000095
:102F40000D0A5761726E6E696E672121204E4D49E0
:102F5000204F6363757265640D0A000070B500212F
:102F600000230F22C4780CB3164C246804F4E064E8
:102F7000C4F5E064210AC1F10403CA40447804FAAC
:102F800003F184781440214309010F4C0678A155C0
:102F9000047804F01F050124AC4005786D114FF052
:102FA000E02606EB8505C5F8004109E0047804F049
:102FB0001F050124AC40054D0678761145F82640E2
:102FC00070BD00000CED00E000E400E080E100E0F6
:102FD00002490143024A1160704700000000FA05EF
:102FE0000CED00E0014908627047000000000E424D
:102FF0000A48006840F00400084908600846006874
:1030000040F0020008600648006840F004000449EF
:10301000086000BF00BF30BF704700000070004074
:1030200010ED00E00149086070470000A0000E426A
:103030002DE9F04385B007460020039004908046B8
:103040008146002500240026CDA207CA8DE807008E
:103050003868039038798DF810009DF80C809DF841
:103060000D909DF80E50FFF739F8044620128DF8A8
:103070000000E0B28DF801008DF807808DF808900F
:10308000C248FEF7FDFBB8F1000F6ED1A9F10900AF
:1030900013286BD2DFE800F00A6A146A436A6B6A8D
:1030A000916A9B6AD06AF96AF36AF200022D03D131
:1030B000B7A004F01BFC02E0C2A004F017FC5AE128
:1030C000022D28D19DF810009DF80F1000EB012073
:1030D00084B202208DF8090020128DF80A00E0B2B7
:1030E0008DF80B000C21684605F0CEFBC048FEF7BA
:1030F000C7FB0C21684605F0C7FBBE48FEF7C0FBC6
:10310000204601F053FDFEF7BDFE0446611CBAA047
:1031100004F0ECFB02E0ABA004F0E8FB2BE1012D96
:103120001FD19DF80F6001208DF809008DF80A600D
:103130000B21684605F0A8FBAD48FEF7A1FB0B216B
:10314000684605F0A1FBAB48FEF79AFB304601F05C
:1031500089FEFEF76DFF06463146AFA004F0C6FBC0
:1031600002E098A004F0C2FB05E105E1FFE0012DBB
:103170001FD19DF80F6001208DF809008DF80A60BD
:103180000B21684605F080FB9948FEF779FB0B217F
:10319000684605F079FB9748FEF772FB304601F070
:1031A000C5FDFEF7EFFE06463146A7A004F09EFBE4
:1031B00002E084A004F09AFBDDE0012D03D1AFA072
:1031C00004F094FB02E07FA004F090FBD3E0022D1A
:1031D0002ED19DF810009DF80F1000EB012084B255
:1031E00020128DF80000E0B28DF8010002208DF869
:1031F000090020128DF80A00E0B28DF80B000C21B6
:10320000684605F041FB7A48FEF73AFB0C21684618
:1032100005F03AFB7748FEF733FB204601F0BCFE91
:10322000FEF75CFF044621469FA004F05FFB02E02E
:1032300064A004F05BFB9EE0012D22D19DF80F609D
:1032400001208DF809008DF80A600B21684605F011
:103250001BFB6748FEF714FB0B21684605F014FBC7
:103260006448FEF70DFB304601F016FFFEF708FD3F
:103270000646314694A004F039FB05E051E02AE00F
:1032800003E050A004F032FB75E0012D1FD19DF842
:103290000F6001208DF809008DF80A600B21684647
:1032A00005F0F2FA5248FEF7EBFA0B21684605F0FA
:1032B000EBFA5048FEF7E4FA304601F069FFFEF7FA
:1032C00067FF0646314688A004F010FB02E03DA0EF
:1032D00004F00CFB4FE0012D1FD19DF80F60012081
:1032E0008DF809008DF80A600B21684605F0CCFACC
:1032F0003F48FEF7C5FA0B21684605F0C5FA3D4880
:10330000FEF7BEFA304601F015FBFEF70FFD06464C
:1033100031467FA004F0EAFA02E02AA004F0E6FABF
:1033200029E0012D1FD19DF80F6001208DF80900C3
:103330008DF80A600B21684605F0A6FA2C48FEF7C6
:103340009FFA0B21684605F09FFA2A48FEF798FA83
:10335000304601F08DFBFEF73FFD0646314674A076
:1033600004F0C4FA02E017A004F0C0FA03E015A0CC
:1033700004F0BCFA00BF00E000BF05B0BDE8F08378
:10338000AAAAAFFFAFEE00AAAAAAAAAAC0C62D0099
:103390000D0A53657269616C20506F727420506120
:1033A00072616D657465727320436F6E6669672024
:1033B0006E6F7420616C6C6F7761626C6520212187
:1033C0000D0A00000D0A5265636569766520343385
:1033D0003320436F6E66696720436F6D6D616E6465
:1033E000206E6F7420636F7272656374210D0A0022
:1033F00080841E0040420F000D0A43656E747261A6
:103400006C204672657175656E6379203A2564207B
:103410004D487A0D0A0000000D0A4E6F6465204683
:1034200072657175656E637920457870616E642090
:10343000466163746F7228496E64657820436F64D7
:1034400065293A25640D0A000D0A4E6F6465204611
:1034500072657175656E637920457870616E642060
:1034600042616E64776964746828496E6465782087
:10347000436F6465293A25640D0A00000D0A4E6FFA
:10348000646520576F726B204D6F646520436F6ECB
:10349000666967206E6F7420616C6C6F7761626C17
:1034A000652021210D0A00000D0A343333204D6FB1
:1034B00064756C65204E6F64652049442069733AD9
:1034C00025780D0A000000000D0A343333204D6FBB
:1034D00064756C65204E6574776F726B204944206B
:1034E00069733A25780D0A000D0A343333204D6F85
:1034F00064756C652053656E6420506F776572202B
:1035000047726164652069733A25780D0A000000EE
:103510000D0A4E6F646520427265617468205065C3
:1035200072696F642069733A25780D0A0000000003
:103530000D0A4E6F64652057616B652054696D6597
:103540002069733A25780D0A0000000070470000DA
:1035500010B502A004F0CAF910BD00000D0A5761B1
:10356000726E6E696E6721212050656E64535643FA
:1035700020657863657074696F6E204F6363757240
:1035800065640D0A0000000010B54FF4C0725F21A1
:103590007F2004F05FF803F009F903F0ADF903F0C0
:1035A0007BFA03F0DBFA03F0C1F803F001FA02F052
:1035B000D3F802F025F90021022000F079F800F09C
:1035C000EFFA204800F040FA00F0B0FA1E49086017
:1035D00002F054F84FF480511C48FEF74FFB1C4892
:1035E000FEF74EF94FF480711848FEF747FB184874
:1035F000FEF746F94FF400611448FEF73FFB14480C
:10360000FEF73EF900201349087064211248FCF7C8
:10361000D6FD00201149086048608860C8602021FC
:103620000F48FEF72BFB0A48FEF72AF901210D4847
:10363000FEF722FB0648FEF723F940210A4803F073
:1036400028FB10BDB003002030000020000801401E
:10365000A086010043000020F8040020BC030020E5
:1036600000100140000C01400044004008B5012159
:10367000042000F03DF88020ADF8000010208DF807
:10368000030069460148FEF765FA08BD00080140DD
:1036900029B1064A52690243044B5A6104E0034AC5
:1036A00052698243014B5A6170470000001002408A
:1036B00029B1064AD2690243044BDA6104E0034AA5
:1036C000D2698243014BDA6170470000001002406A
:1036D00029B1064A12690243044B1A6104E0034A05
:1036E00012698243014B1A617047000000100240CA
:1036F00029B1064A92690243044B9A6104E0034AE5
:1037000092698243014B9A617047000000100240A9
:1037100029B1064AD2680243044BDA6004E0034A46
:10372000D2688243014BDA6070470000001002400B
:103730000149086070470000400442420348406A63
:1037400040F080700149486270470000001002405C
:1037500030B500210022002400232D4D6D6805F0B6
:103760000C0121B1042905D0082923D105E0294DF8
:10377000056022E0274D05601FE0254D6D6805F4CA
:103780007012234D6D6805F48034022505EB9242DA
:103790001CB9214D554305600BE01D4D6D6815F4B6
:1037A000003F03D01C4D5543056002E0194D5543C1
:1037B000056002E0174D056000BF00BF144D6D6845
:1037C00005F0F0010909154D6B5C0568DD404560A9
:1037D0000F4D6D6805F4E061090A104D6B5C45689A
:1037E000DD4085600A4D6D6805F46051C90A0B4DD6
:1037F0006B5C4568DD40C560054D6D6805F4404172
:10380000890B074D6B5CC568B5FBF3F5056130BDF1
:103810000010024000127A0000093D001400002050
:103820002400002010B501460022002300204A1188
:10383000012A02D1094C236806E0022A02D1074C72
:10384000236A01E0054C636A01F01F0201249440E1
:103850001C4201D0012000E0002010BD00100240F9
:1038600000210A4A11700A4A82F82010012802D069
:10387000042808D103E00121044A117004E0052165
:10388000024A117000E000BF00BF704720100240E4
:103890000010024001490860704700003C044242A9
:1038A0000249096A0143014A11627047001002404F
:1038B00038B5002558480078012844D15748007889
:1038C00057490978884234D156480078801EC1B2E1
:1038D000524804F031FD0446E0B28DF80100200AA0
:1038E0008DF800004F480078401E4C49085C9DF858
:1038F000001088421DD14B480078801E4749085C63
:103900009DF80110884214D144484078032806D01D
:10391000042807D0102806D0122808D106E0FFF7A7
:10392000A5FA05E004E0FFF79FFA01E000E000BF20
:1039300000BF00203849087064213848FCF73FFC7C
:1039400000203949087039480078012862D1384888
:1039500000783349097888424ED14FF400713548D8
:10396000FEF78CF94CF25030FDF78AFF2D480178B4
:103970002F4804F0E1FC0446E0B28DF80100200A73
:103980008DF800009DF801102948264A12788154CC
:103990009DF80010024623480078401C115421482D
:1039A0000078801C40B22449087000201D4908702E
:1039B000104622490860002512E02048006801787E
:1039C0001E480068401C1D4B18601D4803F02FFA6C
:1039D00000BF40211A4803F05CF90028F9D06D1CA3
:1039E000154890F900008542E7DB00201249087075
:1039F00064210F48FCF7E3FB00200C490870C82045
:103A0000FDF73EFF4FF400710A48FEF735F90D4807
:103A1000FDF736FF38BD000043000020F804002009
:103A2000400000204500002041000020440000200C
:103A30005C050020001001404200002048000020EA
:103A4000004C0040A086010010B504460420FDF79C
:103A5000ABF9A0F52541A53907D000F029F84AF2C5
:103A6000A5510420FDF7B4F90CE07B20FFF7DAFE46
:103A700018B101200549087002E07A20FFF7D2FE54
:103A800000F0D8F8FFF75AFE10BD00002A00002011
:103A9000024909888143014A118070470428004087
:103AA000024909888143014A118070470428004077
:103AB00010B501214FF0C050FFF7FAFD0120FFF7CC
:103AC000B1FA0120FFF78EFAFDF766F90120FFF742
:103AD000C7FE00BF4120FFF7A5FE0028FAD04FF433
:103AE0008070FFF7DDFE0120FFF7D4FE00F0A2F8A2
:103AF00000F096F847F6FF7000F082F800F090F8BA
:103B000010BD00000348008840F010000149088003
:103B10007047000004280040034800884FF6EF710A
:103B200008400149088070470428004000210348EC
:103B30000188001F008841EA004070471C280040AF
:103B400001460020064A12880A40D0B2044A121FD9
:103B500012880A4202D008B1012000E0002070471C
:103B60000428004010B50120FFF7EAFF20B1012032
:103B7000FFF796FF00F054F80220FFF7E1FF20B1B5
:103B80000220FFF78DFF00F04BF80220FFF780FFC7
:103B900000F046F80420FFF77BFF00F041F810BD6D
:103BA00008B54FF4A060FFF713FA03208DF800006A
:103BB00002208DF801008DF8020001208DF803002D
:103BC0006846FFF7CBF908BD00B50246FFF79AFF3C
:103BD000100C03490880091D0A80FFF79DFF00BDF6
:103BE0002028004000B50246FFF78CFF100C034967
:103BF0000880091D0A80FFF78FFF00BD18280040CC
:103C000000B50246FFF77EFFC2F303400349088078
:103C1000091D0A80FFF780FF00BD00000828004052
:103C200000BF0348008810F0200FFAD07047000052
:103C300004280040064800884FF6F7710840044900
:103C4000088000BF0248008810F0080FFAD07047C3
:103C500004280040F0B5C3B0054601AC002600279B
:103C60002878207068786070A878A070E878E07094
:103C70002879207168796071A879A071E979287A2A
:103C800001EB0020A4F8070000BF07E006F10900DF
:103C9000295C04F109008155701C86B2A079B042FC
:103CA000F4DC2046FEF76BFF0746012F16D1E278C1
:103CB000A07802EB00210AA003F018FE002607E01E
:103CC00004F10900815D0EA003F010FE701C86B2A5
:103CD000A079B042F4DC012043B0F0BD0020FBE746
:103CE0000D0A4461746120726563656976652066BA
:103CF000726F6D20253478206973203A000000002F
:103D000020257820000000002DE9FE4307460D46DF
:103D100000200290002446A00068019045A00068A1
:103D200000900026A046A14643A003F0DFFD281224
:103D30008DF80600E8B28DF8070004234FF4967260
:103D400001A94248FDF7BCFE0446002C4CD0404877
:103D5000844249D2A679C6F591703C490844A042F4
:103D60003ED92046FFF776FF0290BDF8080020B943
:103D7000002438A003F0BAFD36E0607AA32827D1EA
:103D8000A07A202824D1217BE07A01EB0020001DBD
:103D9000C6B2314604F10900FDF7E4F8804606F1A9
:103DA0000A00215C401E205C01EB00201FFA80F914
:103DB000C1450AD12FA003F099FD2B463A4602A92E
:103DC00004F1090002F0B2F802E022A003F08EFD37
:103DD0002F48FDF755FD0024BDF80800BDE8FE831F
:103DE00000242CA003F082FD04234FF49672694650
:103DF0001648FDF765FE0446ACB11548844212D260
:103E0000207918B9601DFFF713F909E0207901281E
:103E100003D16079FFF79AFB02E02CA003F066FD66
:103E200000240020DAE734A003F060FD0020D5E78D
:103E3000AA000000AFFFAFEE0D0ABDD3CAD5CAFD80
:103E4000BEDDBDE2CEF621210D0A0000CC0300202C
:103E5000EE0400200D0A52656365697665202064D2
:103E6000617461206E6F7420636F72726563742178
:103E7000210D0A000D0A526563656976652020648C
:103E800061746120726967687421210D0A00000065
:103E900020A107000D0A526563656976652064619B
:103EA0007461206E6F7420696E74656772617465E9
:103EB00064210D52656365697665206275666620CA
:103EC0006F766572666C6F77210D0A000D0A526578
:103ED00063656976652034333320436F6E666967A6
:103EE00020436F6D6D616E64206E6F7420636F721E
:103EF00072656374210D0A000D0ABDD3CAD5CAFDCF
:103F0000BEDDBDE2CEF6CDEAB3C921210D0A000027
:103F1000014601F00100002207E04306180E491097
:103F200001F001031843531CDAB2072AF5DB70478E
:103F3000014601F00100002209E04FF6FF7303EA99
:103F40004000491001F001031843531CDAB20F2A54
:103F5000F3DB704721B1028842F04002028004E0A6
:103F600002884FF6BF731A400280704770B505464D
:103F70000C4616464FF480511048FDF77DFE032095
:103F800000F0B2F9C4F3074000F0AEF9C4F3072023
:103F900000F0AAF9E0B200F0A7F904E0FF2000F079
:103FA000A3F928706D1C3000A6F101018EB2F5D185
:103FB0004FF480510148FDF761FE70BD000C0140D7
:103FC0002DE9F05F07460E4614464FF00008C14643
:103FD000C2460025AB4606F0FF0ACAF10000C5B292
:103FE0002046E11704EB1161C1F30728E11704EB48
:103FF00011610912A4EB012101F0FF09BAF1000FD0
:1040000020D1B8F1000F05D122463146384600F0E4
:10401000CBF864E009E04FF480723146384600F096
:10402000C3F806F5807607F580775FEA0800A8F107
:10403000010101F0FF08EED14A463146384600F052
:10404000B3F84CE0B8F1000F18D1A94510DDA9EB89
:10405000050000F0FF0B2A463146384600F0A4F870
:104060002E442F445A463146384600F09DF836E03B
:1040700022463146384600F097F830E0601B84B2A3
:104080002046E11704EB1161C1F30728E11704EBA7
:1040900011610912A4EB012101F0FF092A46314602
:1040A000384600F081F82E442F4409E04FF4807226
:1040B0003146384600F078F806F5807607F58077C7
:1040C0005FEA0800A8F1010101F0FF08EED1B9F1A3
:1040D000000F04D04A463146384600F065F8BDE886
:1040E000F09F000000B587B001210820FFF700FB1A
:1040F00001218803FFF7DCFA4FF40050ADF804000B
:1041000003208DF8060018208DF8070001A9244827
:10411000FDF720FD4FF48040ADF8040001A92048D0
:10412000FDF718FD4FF40040ADF8040001A91C484C
:10413000FDF710FD4FF48050ADF8040010208DF80D
:10414000070001A91648FDF705FD4FF480511448FA
:10415000FDF794FD0020ADF808004FF48270ADF833
:104160000A000020ADF80C000220ADF80E0001207E
:10417000ADF810004002ADF812000820ADF81400B0
:104180000020ADF816000720ADF8180002A9054878
:1041900000F012F901210348FFF7DCFE07B000BD73
:1041A000000C01400038004070B505460C4616462C
:1041B00000F0D0F84FF480511348FDF75DFD022068
:1041C00000F092F8C4F3074000F08EF8C4F3072023
:1041D00000F08AF8E0B200F087F8B6F5807F01DDE4
:1041E0004FF4807603E0287800F07EF86D1C3000F4
:1041F000A6F101018EB2F6D14FF480510248FDF7CD
:104200003DFD00F08DF870BD000C014010B500249C
:104210004FF480510C48FDF72FFDAB2000F064F8FF
:10422000FF2000F061F8FF2000F05EF8FF2000F0B2
:104230005BF8FF2000F058F804464FF48051024824
:10424000FDF71CFD204610BD000C01402DE9F0419A
:1042500000240025002600274FF480510F48FDF769
:104260000BFD9F2000F040F8FF2000F03DF80546D0
:10427000FF2000F039F80646FF2000F035F8074629
:104280004FF480510548FDF7F9FC280440EA062068
:1042900040EA07042046BDE8F0810000000C014020
:1042A00010B5044600F056F800F03AF84FF480518B
:1042B0000C48FDF7E1FC202000F016F8C4F307409D
:1042C00000F012F8C4F3072000F00EF8E0B200F09E
:1042D0000BF84FF480510348FDF7D0FC00F020F8B4
:1042E00010BD0000000C014010B5044600BF0221C3
:1042F0000A4800F053F80028F9D02146074800F09A
:1043000059F800BF0121054800F048F80028F9D00D
:10431000024800F04CF8C0B210BD00000038004068
:1043200010B500244FF480510948FDF7A5FC052085
:10433000FFF7DAFF00BFFF20FFF7D6FF044614F0B7
:10434000010FF8D14FF480510148FDF797FC10BDE3
:10435000000C014010B54FF480510648FDF78CFC6D
:104360000620FFF7C1FF4FF480510248FDF786FC9D
:1043700010BD0000000C014010B54FF480510648FC
:10438000FDF77AFCB920FFF7AFFF4FF480510248E8
:10439000FDF774FC10BD0000000C01400246002037
:1043A00013890B4201D0012000E000207047014634
:1043B000888970478181704710B50022028802F415
:1043C00041520B884C8823438C882343CC88234359
:1043D0000C8923434C8923438C892343CC89234371
:1043E0001A430280838B4FF2FF74234083830B8A2E
:1043F000038210BD10B502A003F078FA10BD0000D2
:104400000D0A5761726E6E696E6721212053564303
:10441000616C6C20657863657074696F6E204F63A2
:1044200063757265640D0A002DE9F04F87B0074689
:104430000024A146A346A046A2460020069005906F
:10444000049000250026039002900190FFF70EF9DA
:104450004FF4D97000F0AAFB0B2000F003FD0720F9
:1044600000F064FC022000F02DFF384600F094FDBF
:10447000002000F011FE072000F08AFE002000F06E
:1044800059FA052000F0F4FA80217348FDF7F4FB97
:104490007248FDF7F5F980216F48FDF7EFFBFDF756
:1044A000CDFE044620120390E0B202906CA0DDE93C
:1044B000022103F01BFAFDF7E5FC814609F1010139
:1044C00070A003F013FAFDF7B3FD8046A8F10700D2
:1044D00006281BD2DFE800F003060A0E1216802021
:1044E000019016E04FF48070019012E04FF40070DC
:1044F00001900EE04FF4806001900AE04FF40060FC
:10450000019006E04FF48050019002E000200190FD
:1045100000BF00BF63A0019903F0E8F9FDF732FD89
:104520008246BAF1060F09D0BAF1070F09D0BAF1E5
:10453000080F09D0BAF1090F0ED109E03F20019010
:104540000DE07D2001900AE04FF48070019006E0BC
:104550004FF40070019002E00020019000BF00BF06
:104560005AA0019903F0C2F9FDF7C4FE069006981F
:1045700020B1012806D002280CD107E05EA003F08C
:10458000B5F90BE066A003F0B1F907E06DA003F008
:10459000ADF903E074A003F0A9F900BF00BFFDF777
:1045A0009DFD834659467AA003F0A0F9FDF768FB0C
:1045B00005907FA0059903F099F9FDF7E9FD0490B6
:1045C00084A0049903F092F9FDF7B0FB0546052D90
:1045D00013D2DFE805F00306090C0F00022001905A
:1045E0000EE0042001900BE00620019008E0082076
:1045F000019005E00A20019002E00020019000BF38
:1046000000BF7EA0019903F071F9FDF7E5FB0646B6
:10461000062E16D2DFE806F00306090C0F12022060
:10462000019011E0042001900EE0082001900BE0C1
:104630001020019008E02020019005E0402001902A
:1046400002E00020019000BF00BF73A0019903F0B9
:104650004DF907B0BDE8F08F00080140404B4C0019
:104660000D0A4261756420526174653A25642D2DEE
:104670002D56657269667920547970653A25640D06
:104680000A0000000D0A43656E7472616C20467268
:10469000657175656E6379203A2564204D487A0D01
:1046A0000A0000000D0A4E6F646520467265717540
:1046B000656E637920457870616E6420466163742D
:1046C0006F723A2564200D0A000000000D0A4E6F3B
:1046D0006465204672657175656E637920457870F2
:1046E000616E642042616E6477696474683A25641F
:1046F0004B487A0D0A0000000D0A343333204D6F09
:1047000064756C6520576F726B204D6F646520690E
:10471000733A205374616E646172640D0A00000084
:104720000D0A343333204D6F64756C6520576F72FA
:104730006B204D6F64652069733A2043656E746524
:10474000720D0A000D0A343333204D6F64756C65A9
:1047500020576F726B204D6F64652069733A204E4D
:104760006F64650D0A0000000D0A343333204D6F6D
:1047700064756C6520576F726B204D6F646520699E
:10478000733A20556E6B6E6F776E0D0A0000000055
:104790000D0A343333204D6F64756C65204E6F64A1
:1047A000652049442069733A2025780D0A000000ED
:1047B0000D0A343333204D6F64756C65204E65747B
:1047C000776F726B2049442069733A2025780D0A6F
:1047D000000000000D0A343333204D6F64756C65A2
:1047E0002053656E6420506F776572204772616454
:1047F000652069733A2025640D0A00000D0A4E6F8A
:1048000064652042726561746820506572696F64E6
:104810003A256420730D0A000D0A4E6F6465205717
:10482000616B652054696D653A2564206D730D0ACE
:10483000000000002DE9F04FC3B007460D4690463A
:104840001E4601AC4FF0000BD946CA462046FEF783
:104850008EF92046FEF782F9E6703012A070FF2D27
:1048600003DDFF2522A003F041F82A46394604F172
:104870000900FBF78BFCA571204602F0CFFDA07963
:1048800000F109052946204603F0FEFFFFF74EF927
:104890000090FBF773FCFBF767FC462190FBF1F2FD
:1048A00001FB120000F0FF0A514617A003F01EF8AA
:1048B0004FF0000910E01948FCF7E2FF18480078B3
:1048C000012805D131464046FCF730FD834607E01C
:1048D00009F1010000F0FF090AF128004845EADC6F
:1048E00000BF10A003F002F8584643B0BDE8F08FB7
:1048F0000D0A53656E6442756666204F7665724692
:104900006C6F7721210D0A000D0A52616E646F6D84
:1049100020446174613A25640D0A0000400D0300D3
:10492000340000200D0A53656E64204F76657221B5
:10493000210D0A002DE9FF4105462FA30FCB8DE87D
:104940000F000026002400273DB1012D05D0022DC7
:1049500003D0032D01D0042D48D18DF80850002438
:1049600005E01DF80400304486B2601CC4B20A2C75
:10497000F7DB3046F11706EB11610912A6EB0121B6
:10498000C9B28DF80A100D21684603F051FF0024CA
:1049900029E01D48FCF774FF1C480078012820D14D
:1049A000FCF72AFC87B2002F17DD394618A002F069
:1049B0009DFF1C491CA002F099FF002406E0194845
:1049C000015D1DA002F092FF601CC4B2BC42F6DB88
:1049D0004FF496711A48FBF7F2FB00200B49087060
:1049E00003E0601CC4B20A2CD3DB02E015A002F085
:1049F0007DFFBDE8FF810000AFAF0000AF8019026E
:104A0000FF00FF0D0A000000400D030034000020ED
:104A10000D0A446174614C656E6774683A25640DD3
:104A20000A000000CC0300200D0A55617274333A6D
:104A300025730D0A0000000020252E32782000008A
:104A4000840200200D0A4E6F646520427265617415
:104A50006820506572696F64206973206F757420D7
:104A60006F66206C696D69747321210D0A00000066
:104A70002DE9FF41044630A30FCB8DE80F0000263F
:104A8000002500274CB1012C07D0022C05D0032CA7
:104A900003D0042C01D0052C48D18DF80840002506
:104AA00005E01DF80500304486B2681CC5B20A2D29
:104AB000F7DB3046F11706EB11610912A6EB012175
:104AC000C9B28DF80A100D21684603F0B1FE002529
:104AD00029E01D48FCF7D4FE1C480078012820D1AD
:104AE000FCF78AFB87B2002F17DD394618A002F0C9
:104AF000FDFE1C491CA002F0F9FE002506E0194845
:104B0000415D1DA002F0F2FE681CC5B2BD42F6DB9D
:104B10004FF496711A48FBF752FB00200B490870BE
:104B200003E0681CC5B20A2DD3DB02E015A002F039
:104B3000DDFEBDE8FF810000AFAF0000AF801B02CB
:104B4000FF00FF0D0A000000400D030034000020AC
:104B50000D0A446174614C656E6774683A25640D92
:104B60000A000000CC0300200D0A55617274333A2C
:104B700025730D0A0000000020252E327820000049
:104B8000840200200D0A4E6F6465204272656174D4
:104B9000682054696D65206973206F7574206F6695
:104BA000206C696D69747321210D0A002DE9F047AD
:104BB00086B081463CA3D3E901211868DB68CDE9C2
:104BC0000413CDE9020200250024A2460026B9F50F
:104BD000D27F63DDB9F5FA7F60DC374909FB01F06C
:104BE000FBF75EFD0746354A354BFBF7E1FCCDE9A7
:104BF0000001FBF7BFFD0646300C8DF81000300AAF
:104C00008DF81100F0B28DF8120000BF05E002A887
:104C1000005D284485B2601CC4B20B2CF7DB28462B
:104C2000E91705EB11610912A5EB0121C9B28DF855
:104C300013100E2102A803F0FBFD00242BE02148F5
:104C4000FCF71EFE20480078012822D1FCF7D4FA98
:104C50001FFA80FABAF1000F17DD51461BA002F0CF
:104C600045FE1F491FA002F041FE002406E01C483B
:104C7000015D20A002F03AFE601CC4B25445F6DB90
:104C80004FF496711D48FBF79AFA00200E49087000
:104C900003E0601CC4B20A2CD1DB02E018A002F0D1
:104CA00025FE06B0BDE8F087AFAF0000AF800B0374
:104CB000FFFFFFFF0D0A000040420F0014AE47E166
:104CC0007A844E40400D0300340000200D0A4461F8
:104CD00074614C656E6774683A25640D0A000000C3
:104CE000CC0300200D0A55617274333A25730D0A06
:104CF0000000000020252E327820000084020020D1
:104D00000D0A43656E7472616C204672657175653B
:104D10006E6379206973206F7574206F66206C69EB
:104D20006D69747321210D0A000000002DE9FF4117
:104D300006462CA30FCB8DE80F000025002400278A
:104D4000062E4ADB092E48DC8DF8086000BF05E01E
:104D50001DF80400284485B2601CC4B20A2CF7DB9D
:104D60002846E91705EB11610912A5EB0121C9B22B
:104D70008DF80A100D21684603F05AFD002429E041
:104D80001C48FCF77DFD1C480078012820D1FCF769
:104D900033FA87B2002F17DD394618A002F0A6FDBE
:104DA0001B491CA002F0A2FD002406E01848015D8A
:104DB0001CA002F09BFD601CC4B2BC42F6DB4FF4A9
:104DC00096711A48FBF7FBF900200B49087003E0C5
:104DD000601CC4B20A2CD3DB02E015A002F086FDF1
:104DE000BDE8FF81AFAF0000AF800F02FF00FF0DF5
:104DF0000A000000400D0300340000200D0A446149
:104E000074614C656E6774683A25640D0A00000091
:104E1000CC0300200D0A55617274333A25730D0AD4
:104E20000000000020252E3278200000840200209F
:104E30000D0A4672657175656E63792045787061FB
:104E40006E642042616E64776964746820697320BF
:104E50006F7574206F66206C696D69747321210D04
:104E60000A0000002DE9FF4106462CA30FCB8DE878
:104E70000F00002500240027072E4ADB0C2E48DCFB
:104E80008DF8086000BF05E01DF80400284485B2D5
:104E9000601CC4B20A2CF7DB2846E91705EB116148
:104EA0000912A5EB0121C9B28DF80A100D2168463F
:104EB00003F0BEFC002429E01C48FCF7E1FC1C4880
:104EC0000078012820D1FCF797F987B2002F17DD71
:104ED000394618A002F00AFD1B491CA002F006FD8D
:104EE000002406E01848015D1CA002F0FFFC601CD5
:104EF000C4B2BC42F6DB4FF496711A48FBF75FF977
:104F000000200B49087003E0601CC4B20A2CD3DBFC
:104F100002E015A002F0EAFCBDE8FF81AFAF00009F
:104F2000AF800D02FF00FF0D0A000000400D0300DE
:104F3000340000200D0A446174614C656E6774682A
:104F40003A25640D0A000000CC0300200D0A5561CB
:104F50007274333A25730D0A0000000020252E32AA
:104F600078200000840200200D0A46726571756584
:104F70006E637920457870616E6420466163746F5A
:104F800072206973206F7574206F66206C696D697B
:104F9000747321210D0A00002DE9FF4106462BA361
:104FA0000FCB8DE80F0000250024002730128DF86C
:104FB0000800F0B28DF8090000BF05E01DF80400FC
:104FC000284485B2601CC4B20A2CF7DB2846E917D6
:104FD00005EB11610912A5EB0121C9B28DF80A1088
:104FE0000D21684603F024FC002429E01B48FCF74F
:104FF00047FC1B480078012820D1FCF7FDF887B258
:10500000002F17DD394617A002F070FC1A491BA0CB
:1050100002F06CFC002406E01748015D1BA002F0C2
:1050200065FC601CC4B2BC42F6DB4FF496711948B3
:10503000FBF7C5F800200A49087003E0601CC4B201
:105040000A2CD3DB00BFBDE8FF810000AFAF00003A
:10505000AF801302FFFFFF0D0A000000400D0300A8
:10506000340000200D0A446174614C656E677468F9
:105070003A25640D0A000000CC0300200D0A55619A
:105080007274333A25730D0A0000000020252E3279
:1050900078200000840200202DE9FF41074629A363
:1050A0000FCB8DE80F000025002400268DF8087036
:1050B00000BF05E01DF80400284485B2601CC4B29E
:1050C0000A2CF7DB2846E91705EB11610912A5EB5D
:1050D0000121C9B28DF80A100D21684603F0A8FB22
:1050E000002429E01B48FCF7CBFB1B480078012873
:1050F00020D1FCF781F886B2002E17DD314617A0CB
:1051000002F0F4FB1A491BA002F0F0FB002406E0B9
:105110001748015D1BA002F0E9FB601CC4B2B44259
:10512000F6DB4FF496711948FBF749F800200A495D
:10513000087003E0601CC4B20A2CD3DB00BFBDE8DA
:10514000FF810000AFAF0000AF801502FF00FF0D30
:105150000A000000400D0300340000200D0A4461E5
:1051600074614C656E6774683A25640D0A0000002E
:10517000CC0300200D0A55617274333A25730D0A71
:105180000000000020252E3278200000840200203C
:105190002DE9FF4106462CA30FCB8DE80F0000251B
:1051A00000240027012E4ADB072E48DC8DF808601A
:1051B00000BF05E01DF80400284485B2601CC4B29D
:1051C0000A2CF7DB2846E91705EB11610912A5EB5C
:1051D0000121C9B28DF80A100D21684603F028FBA1
:1051E000002429E01C48FCF74BFB1C4800780128F0
:1051F00020D1FCF701F887B2002F17DD394618A03F
:1052000002F074FB1B491CA002F070FB002406E0B6
:105210001848015D1CA002F069FB601CC4B2BC42CE
:10522000F6DB4FF496711A48FAF7C9FF00200B49D4
:10523000087003E0601CC4B20A2CD3DB02E015A0A6
:1052400002F054FBBDE8FF81AFAF0000AF80170252
:10525000FF00FF0D0A000000400D03003400002095
:105260000D0A446174614C656E6774683A25640D7B
:105270000A000000CC0300200D0A55617274333A15
:1052800025730D0A0000000020252E327820000032
:10529000840200200D0A4E6F64652053656E642001
:1052A000506F776572204772616465206973206F63
:1052B0007574206F66206C696D69747321210D0A05
:1052C000000000002DE9FF4105462DA30FCB8DE81E
:1052D0000F000026002400271DB1012D01D0022D52
:1052E00048D18DF80850002405E01DF80400304432
:1052F00086B2601CC4B20A2CF7DB3046F11706EB0D
:1053000011610912A6EB0121C9B28DF80A100D2115
:10531000684603F08DFA002429E01D48FCF7B0FA36
:105320001C480078012820D1FBF766FF87B2002FC8
:1053300017DD394618A002F0D9FA1C491CA002F06A
:10534000D5FA002406E01948015D1DA002F0CEFA4E
:10535000601CC4B2BC42F6DB4FF496711A48FAF7EF
:105360002EFF00200B49087003E0601CC4B20A2C19
:10537000D3DB02E015A002F0B9FABDE8FF8100001E
:10538000AFAF0000AF801102FF00FF0D0A00000068
:10539000400D0300340000200D0A446174614C6527
:1053A0006E6774683A25640D0A000000CC03002083
:1053B0000D0A55617274333A25730D0A000000001E
:1053C00020252E3278200000840200200D0A4E6F26
:1053D000646520576F726B204D6F64652069732080
:1053E0006F7574206F66206C696D69747321210D6F
:1053F0000A00000010B500F001F810BD0CB5002047
:10540000019000903248006840F4803030490860D4
:1054100000BF2F48006800F4003000900198401C45
:105420000190009818B90198B0F5A06FF1D1284803
:10543000006810F4003F02D00120009001E000203D
:1054400000900098012842D12248006840F01000E6
:10545000204908600846006820F0030008600846FC
:10546000006840F002000860194840681849486028
:105470000846406848600846406840F480604860DC
:105480000846406820F47C1048600846406840F4B4
:10549000E81048600846006840F08070086000BF6F
:1054A0000B48006810F0007FFAD00948406820F0EF
:1054B0000300074948600846406840F00200486021
:1054C00000BF0348406800F00C000828F9D10CBD6B
:1054D000001002400020024010B50021602004F0BE
:1054E00059F8602002F00AFF0221612004F052F80E
:1054F000612002F003FF32210F2004F04BF80F204F
:1055000002F0FCFE1C21142004F044F8142002F0E8
:10551000F5FEED21622004F03DF8622002F0EEFE7F
:105520008021632004F036F8632002F0E7FE9B211F
:10553000642004F02FF8642002F0E0FE14216520BE
:1055400004F028F8652002F0D9FE8321662004F0DB
:1055500021F8662002F0D2FE0821672004F01AF834
:10556000672002F0CBFE3221692004F013F8692095
:1055700002F0C4FE1F216A2004F00CF86A2002F039
:10558000BDFE40216B2004F005F86B2002F0B6FE52
:105590000621682003F0FEFF682002F0AFFE0F2115
:1055A0006C2003F0F7FF6C2002F0A8FE1C216D2098
:1055B00003F0F0FF6D2002F0A1FE26216E2003F023
:1055C000E9FF6E2002F09AFE27216F2003F0E2FF30
:1055D0006F2002F093FE0721702003F0DBFF7020A4
:1055E00002F08CFE1021712003F0D4FF712002F034
:1055F00085FE1E21722003F0CDFF722002F07EFE98
:105600001221732003F0C6FF732002F077FE0221FF
:10561000742003F0BFFF742002F070FE0521752096
:1056200003F0B8FF752002F069FE0521762003F033
:10563000B1FF762002F062FE0A21772003F0AAFF74
:10564000772002F05BFE0421782003F0A3FF78208E
:1056500002F054FE0821792003F09CFF792002F02B
:105660004DFE00217A2003F095FF7A2002F046FEDD
:1056700010BD10B500F0A8FA10BD000030B51A48F2
:1056800000681A4AB0FBF2F1B1F1807F01D301202A
:105690001DE021F07F40401E4FF0E0225061501786
:1056A0000F22002807DA13071D0E114B00F00F041C
:1056B000241F1D5503E013071C0E0E4B1C5400BF86
:1056C00000204FF0E022906107201061002008B117
:1056D00000BFFEE74FF0E020006920F001004FF02E
:1056E000E021086130BD00000000002040420F00B2
:1056F00018ED00E000E400E010B51348006840F049
:1057000001001149086008464068104908400E49E8
:105710004860084600680E4908400B490860084682
:10572000006820F4802008600846406820F4FE00ED
:1057300048604FF41F008860FFF75CFE4FF0006088
:105740000449086010BD0000001002400000FFF88E
:10575000FFFFF6FE08ED00E00EB501210220FDF787
:10576000A7FF114800F072F841F28730ADF804004D
:105770004720ADF800004FF40070ADF8060000209F
:10578000ADF802006946084800F06EF901210648AC
:1057900000F049F801221146034800F05CF90121AC
:1057A000014800F046F80EBD0004004010B501218C
:1057B0000F4800F03FF9C8B101210D4800F036F85C
:1057C000002201210A4800F046F90021084800F0B3
:1057D00030F8074800F03AF80120064908700648FA
:1057E00000780649087000200349087010BD0000C9
:1057F000000400404300002041000020450000203C
:1058000008B54FF4A060FDF7E3FB1D208DF8000004
:1058100001208DF801008DF802008DF80300684624
:10582000FDF79CFB08BDCA4302827047CA4302824F
:10583000704721B1028842F00102028004E0028830
:105840004FF6FE731A4002807047000010B5044600
:105850006848844208D10121C014FDF759FF002196
:10586000E014FDF755FFC4E0B4F1804F08D10121E9
:105870000846FDF72DFF00210120FDF729FFB8E0C4
:105880005D48844208D101210220FDF721FF00215B
:105890000220FDF71DFFACE05848844208D10121E9
:1058A0000420FDF715FF00210420FDF711FFA0E003
:1058B0005348844208D101210820FDF709FF002147
:1058C0000820FDF705FF94E04E48844208D10121ED
:1058D0001020FDF7FDFE00211020FDF7F9FE88E005
:1058E0004948844208D101212020FDF7F1FE002122
:1058F0002020FDF7EDFE7CE04448844208D10121E0
:105900004014FDF705FF00216014FDF701FF70E072
:105910003F48844209D10121C804FDF7F9FE002166
:105920004FF40020FDF7F4FE63E03A48844209D1C9
:1059300001210805FDF7ECFE00214FF48010FDF772
:10594000E7FE56E03448844209D101214805FDF7BD
:10595000DFFE00214FF40010FDF7DAFE49E02F488A
:10596000844208D101214020FDF7B2FE00214020F1
:10597000FDF7AEFE3DE02A48844208D10121802097
:10598000FDF7A6FE00218020FDF7A2FE31E02548AC
:10599000844208D101218015FDF79AFE0021A0154F
:1059A000FDF796FE25E02048844209D10121080434
:1059B000FDF7AEFE00214FF48030FDF7A9FE18E0A0
:1059C0001A48844209D101214804FDF7A1FE0021B3
:1059D0004FF40030FDF79CFE0BE01548844208D1DF
:1059E00001218804FDF794FE00214FF48020FDF78B
:1059F0008FFE10BD002C0140000400400008004054
:105A0000000C004000100040001400400034014031
:105A1000004C01400050014000540140001800407B
:105A2000001C0040002000400040014000440140B4
:105A30000048014030B50246002000230024158AAA
:105A400005EA0103958905EA010413B10CB10120AF
:105A500000E0002030BD1AB183890B43838102E04E
:105A600083898B4383817047002202881D4B9842B3
:105A70000ED01D4B98420BD0B0F1804F08D01B4B7D
:105A8000984205D01A4B984202D01A4B984204D142
:105A90004FF68F731A404B881A43174B984207D022
:105AA000164B984204D04FF6FF431A40CB881A4356
:105AB00002808B8883850B8803850A4B98420BD024
:105AC000094B984208D00E4B984205D00D4B984296
:105AD00002D00D4B984201D10B7A038601238382B9
